:020000040800F2
:10000000005000203D1600087F1600087D160008ED
:100010007D1600087D1600087D160008000000000F
:100020000000000000000000000000007F16000833
:100030007F160008000000007F160008F502000887
:100040007D1600087D1600087D1600087D16000844
:100050007D1600087D1600087D1600087D16000834
:100060007D1600087D1600087D1600087D16000824
:100070007D1600087D1600087D1600087D16000814
:100080007D1600087D1600087D1600087D16000804
:100090007D1600087D1600087D1600087D160008F4
:1000A0007D1600087D1600087D1600087D160008E4
:1000B0007D1600087D1600087D1600087D160008D4
:1000C0007D1600087D1600087D1600087D160008C4
:1000D0007D1600087D1600087D1600087D160008B4
:1000E0007D1600087D1600087D1600087D160008A4
:1000F0007D1600087D1600087D1600087D16000894
:100100007D1600087D1600087D1600087D16000883
:100110007D1600087D1600087D1600087D16000873
:100120007D1600087D1600087D1600087D16000863
:100130007D1600087D1600087D1600087D16000853
:100140007D1600087D1600087D1600087D16000843
:1001500070B591F800C00CF07F00212801D000207C
:1001600070BD4C78601E05283CD8DFE800F03D3BB0
:10017000170F034840F2000CC2F2000C12689CF802
:1001800000400120147001241C8070BD40F2000367
:10019000C2F200031C780A2C37D134E040F200018F
:1001A000C2F200010C781068032C30D00026062C17
:1001B00002D107240C70002600210170106840F263
:1001C000512546701068C0F6000581701668012040
:1001D000F1701668347112685171049A0621198001
:1001E000156070BD002070BD0BB1188898B940F241
:1001F0000003C2F2000306221A70012070BD40F213
:100200000003C2F2000302201870012070BD042414
:100210000C706426D0E791F803C08C7840F21C0083
:1002200044EA0C21C2F20000A0F80814B3F800E080
:100230001168A0F800E41A8801F04CFA40F2000CB2
:10024000C2F2000C03218CF80010012070BD00BF29
:10025000F8B540F20006C2F2000633780446042BDB
:1002600002D0072B1CD0F8BD40F21C05C2F20005DD
:1002700000F0E2FAB5F80814B1B9D5F8010000F1C0
:100280007842A2F50053B3F5F03F2CD22B78212B06
:1002900026D0412B20D000F0DBFA05203070F8BDCD
:1002A000BDE8F84001F00EBA8B1EB5F80004D5F891
:1002B00004149F027F180028EDD000243819295B10
:1002C00000F0E2FAB5F8002402349442F6DB00F0C4
:1002D000BFFA05203070F8BD00F0EAFAD5F8010049
:1002E000C5F80404D7E720460122BDE8F84000F035
:1002F00044BE00BF4FF44060C4F201004FF40061FF
:1003000001F08DB9F0B541F2180083B0C4F20200DB
:10031000082100F0B5F94FF44060C4F201004FF439
:10032000805101F084F9E0B14FF40052C0F60002B0
:1003300000201168C2F6FE7001EA0003B3F1005F0D
:100340000FD14EF60857CEF200074FF400563E602C
:10035000156885F3088842F20404C0F60004226898
:10036000904742F2200CC4F2020CDCF800309B07EC
:1003700040F0078100F0DAF941F21C00C4F20200FB
:100380004FF4000100F07CF941F218000421C4F29E
:10039000020000F075F900214FF400600A46C4F233
:1003A00001004FF4807300F005FA4FF44060022121
:1003B00000224FF40063C4F2010000F0FBF90020BA
:1003C00001F066F94BF6A030C0F20D0001F058F9CB
:1003D00001F068F901F06EF94FF44060002101224C
:1003E000C4F2010040F2044300F0E4F94FF2EC776C
:1003F0004FF2E872C1F6FF72C1F6FF774FF2F07666
:100400001568C1F6FF763868346841190B19C3F3D3
:10041000031203F00F0CC3F30327C3F30336C3F334
:100420000345C3F30350C3F303611B0F02F1300E06
:1004300040F21C0403F13002C2F2000430373036BF
:100440003035303030310CF1300C392A84F813C497
:1004500084F812E484F8117484F8106484F80F545A
:1004600084F80E0484F80D1484F80C2402D9373370
:1004700084F80C3494F80D2440F21C03392AC2F29B
:10048000000302D9D11D83F80D1494F80E2440F214
:100490001C03392AC2F2000302D9D01D83F80E04CE
:1004A00094F80F2440F21C03392AC2F2000302D947
:1004B000D51D83F80F5494F8102440F21C03392AF8
:1004C000C2F2000302D9D61D83F8106494F81124F7
:1004D00040F21C03392AC2F2000302D9D71D83F867
:1004E000117494F8122440F21C03392AC2F200035A
:1004F00002D9073283F8122494F8132440F21C0323
:10050000392AC2F2000302D9D11D83F8131441F233
:10051000FC61C0F60001002541F2C07001F1140237
:10052000254B84F81454C0F600000424009400F015
:10053000D3FC40F22454C2F200044FF480612060E6
:1005400000F0EAFC40F251137F22C0F600032121A3
:10055000206800F0B6FD4FF40060C4F201004FF4D3
:10056000807101F05AF84FF40060C4F201000221DA
:100570002A464FF4807300F01DF9206800F0CEFC8D
:10058000FBE700F059F942F210010020C4F2020129
:10059000086000F0A7F94FF47840C1F6FF7045F607
:1005A000A52100F0B9F94FF60800C1F6FF704FF42D
:1005B0007F7100F0B1F9DDE604000020062827D89D
:1005C000DFE800F004090E13181D2200114803682B
:1005D0009901FBD570470F4A11680A01FBD5704796
:1005E0000C4803689B00FBD570470A4A11688803D2
:1005F000FBD57047074803689907FBD57047064A43
:1006000011688A07FBD57047044803689B07FBD530
:10061000704700BF0010024020100240241002402A
:10062000062826D8DFE800F004090E13181A200067
:10063000104B1A6842F0807214E00E4B186840F0BC
:1006400080620FE00B4B196841F080520AE0094BC1
:100650001A6842F4803205E0064B00E0064B186849
:1006600040F001021A607047044B1A6842F0010121
:100670001960704700100240201002402410024010
:10068000026841EA0203036070470000034B1A68E6
:1006900022F0030140EA01021A6070470410024090
:1006A000034B1A6822F4701141EA80421A607047C5
:1006B00004100240034B1A6822F4803141EA0042E0
:1006C0001A60704704100240034B1A6822F400318C
:1006D00041EA40421A60704704100240034B1A6816
:1006E00022F4404141EA80321A607047041002400F
:1006F000034B1A6822F4605141EAC0221A60704725
:1007000004100240034B1A6822F4E06141EA00221F
:100710001A60704704100240034B1A6822F0F0017F
:1007200041EA00121A6070470410024008B5042024
:10073000FFF776FF0420FFF741FF0020FFF7A6FF39
:100740000320FFF76DFF0320FFF738FF0120FFF7BD
:100750009DFF0020FFF7E0FF0320FFF7BFFF04200D
:10076000FFF7D0FF0020FFF7C3FF022000F05AF888
:100770000720FFF795FF0120FFF79CFF0020FFF700
:10078000A3FF0020FFF74CFF0020FFF717FF022018
:10079000FFF77CFF03480449044A054B08601A60D0
:1007A00008BD00BF005125021400002000A24A0429
:1007B000180000202DE9F0470768002546682C4600
:1007C00043FA04FC1CF0010F22D01FFA84F8B8F1A0
:1007D000070F05D9A5F120091FFA89FCB14601E0F0
:1007E000AC46B9464FF00F0A0AFA0CFA29EA0A0990
:1007F0000CF1020A02FA0AFA01FA0CFC4AEA0C0CA1
:100800004CEA090CB8F1070F98BF674688BF6646E7
:1008100001340435102CADB2D2D107604660BDE87A
:10082000F0870000034B1A6822F0070140EA01023A
:100830001A60704700200240024B0348034A1860C8
:100840001A6070470420024023016745AB89EFCD51
:10085000024B186840F080021A6070471020024076
:10086000024B0348034A18601A6070470820024090
:1008700023016745AB89EFCD02480368DB07FBD452
:10088000704700BF0C20024070B5084D04460E466C
:10089000FFF7F2FF2A6842F0010129602680FFF786
:1008A000EBFF286820F001032B6070BD1020024090
:1008B00038B50A4C0546FFF7DFFF2168084B41F0C9
:1008C000020020601D60226842F040012160FFF7B5
:1008D000D3FF206820F00203236038BD10200240BF
:1008E0001420024010B50B4CFFF7C6FF23689A0591
:1008F00001D4FFF7B5FF216841F020002060236894
:1009000043F040022260FFF7B7FF216821F020008A
:10091000206010BD1020024070B50B4D0E460446FD
:10092000FFF7AAFF2B68990501D4FFF799FF2B6801
:1009300043F010022A602680FFF79EFF296821F00D
:100940001000286070BD00BF10200240024B41F033
:1009500080011960704700BF4C5C00400B4B1A6867
:1009600048F6BF7C02EA0C0119601A684BF68F7CCE
:1009700002EA0C01064A43F8041B9342EFD10268D5
:10098000D17920314B000383704700BF045C0040E5
:10099000205C004030B5B1B9304C48F6BF732068D8
:1009A000102403400120002A14BF4FF0100C4FF018
:1009B000200C1CEA000F18BF43404500013CA8B2C0
:1009C000F1D1264803600B0620D501F07F00850099
:1009D00005F1804101F5B8410C6848F6BF7323402A
:1009E00001201024002A14BF10252025054218BF1D
:1009F00043404000013C80B2F4D10B6062BB0B6805
:100A000048F6CF7C03EA0C020A6030BD52B98C0074
:100A100004F1804C0CF5B8452B684CF68F7003EA56
:100A200000042C608B0003F1804101F5B841086897
:100A30004BF68F7500EA050310240120002A0CBF35
:100A40004FF440554FF48055054218BF43404000D5
:100A5000013C80B2F2D10B6030BD00BF005C0040B1
:100A600008060FD501F07F02910001F1804C0CF5D2
:100A7000B840036803F03002A2F11001484240EB95
:100A800001007047880000F1804C0CF5B8431A68EB
:100A900002F44051A1F58050434243EB00007047FF
:100AA0000B0628D4144B88005A5400F1804101F5FC
:100AB000B84182B10A684BF68F7002EA0003102039
:100AC000012212F4005F18BF53405200013892B265
:100AD000F7D10B6070470B684BF68F7C03EA0C0371
:100AE0001020012212F4405F18BF53405200013819
:100AF00092B2F7D10B6070471C05002001F07F0116
:100B000070B58C0004F1804000F5B840046804F032
:100B10003004302C35D01C4DC9002C68A5B24C19BE
:100B200004F1005C0CF540556C00258805F1005C73
:100B30000CF540545D1C64006D0804EB850503E072
:100B400032F8026C24F8046B0232AC42F8D10E4A3F
:100B50001468A2B20D4C01EB020C0CEB0402540021
:100B60002360016848F6BF720A401024012111F089
:100B7000300F18BF4A404900013C89B2F7D10260EA
:100B800000E00023184670BD505C00400230002099
:100B90002DE9F0438C0004F1804000F5B840046872
:100BA00004F44054B4F5405F59D02F4ECC00376860
:100BB0002E4D1FFA87FC04EB0C0845446F003D885E
:100BC000AF05BD0D9D420ADA3568284BAEB204EB85
:100BD000060808EB03077D002E68B3059B0D224D28
:100BE0002E68B7B204EB0708214C08EB04056E0031
:100BF000378803F0010807F1005C0CF540546700EA
:100C00005C081646BC46254605E03CF8049B013DC1
:100C100026F8029CADB20236002DF6D1B8F1000FD5
:100C200003D017F8245002F81450046840F68F7C63
:100C300004EA0C0202600F4A525C8AB901684BF662
:100C40008F7401EA04021024012111F4405F18BFDF
:100C50004A404900013C89B2F7D1026000E000231C
:100C60001846BDE8F08300BF505C0040063000200D
:100C7000043000201C05002070B52C4E0546346859
:100C8000A4B2620507D54021018300F055F94FF663
:100C9000FF33336070BD23042CD504F00F014FEAFD
:100CA000810C0CF1804214F0100002F5B84305D01D
:100CB0001A68C2F3C023581CC3B206E01E6848F687
:100CC0000F7C06EA0C021A60034601EB4102D318BE
:100CD00005EB8300436E13B1284698470AE089006C
:100CE00001F1804202F5B8410B6840F68F7C03EABF
:100CF0000C000860200506D50C4B4FF2FF70186001
:100D00002B6A03B19847E10406D508496B6A4EF691
:100D1000FF720A6003B19847A20506D5AB6A03B11A
:100D20009847024B4FF6FF50186070BD445C00407E
:100D300008B508484FF40001FFF7A2FC064A07492E
:100D400000204FF41C431060086041F80C0C136045
:100D5000034808BD1C100240405C0040505C00404D
:100D6000340400202DE9F3410D4657490446086834
:100D7000496825F07F07E84605F07F05A8E80300ED
:100D8000A80000F1804101F5B841D1F800C048F653
:100D900080700CEA000848EA05000860D1F800C03D
:100DA00048F68F180CEA08080DF1080C0CEB42000D
:100DB00030F8082CFFB248EA0200089E086007B924
:100DC0007DBB4248B4F81880026890B200EBC502BF
:100DD00002F1005C0CF540504200C2F800801EB1E8
:100DE0000C2000FB054256660A6848F6CF7C02EAF2
:100DF0000C0008600A6848F6BF7C02EA0C02012079
:100E00004FF0100C10F0200F18BF42404000BCF112
:100E1000010C80B2F6D198440A60A4F81880002F23
:100E20004FD1DFF8A8C0E800DCF80020278B92B291
:100E300000EB0208264A424452003E2B17601A4635
:100E400013D9DCF800C013F01F0F1FFA8CFC844488
:100E500018BFA3F120021F486FEA825260446FEA74
:100E6000524C40001FFA8CF20DE0DCF800C013F089
:100E7000010F1FFA8CFC8444164818BF5A1C6044AA
:100E800092B24000920202601EB10C2202FB0545A4
:100E9000AE6608684CF68F7500EA05020A600868BD
:100EA0004BF68F7500EA05021025012010F4405F13
:100EB00018BF42404000013D80B2F7D1DB190A6003
:100EC0002383BDE8FC8100BFB8170008505C0040D8
:100ED0000430002006300020F8B5044600680D46B6
:100EE00016461F468047069A07498023C260016163
:100EF0008382064A0649074BC0F8C84080E8E000F4
:100F0000C26681664366F8BD28050020EB10000824
:100F10004B110008D711000881827047D0F8C81023
:100F200008B54B6A984708BD37B5069DD0F8C8404C
:100F30000095A468A0473EBD37B5002405468475DA
:100F4000C4752146224640230094FFF7EDFFD5F8F3
:100F5000C8002146436828469847EB6903B1984783
:100F60003EBD10B5D0F8C840E469A04710BD10B52B
:100F7000D0F8C840246AA04710BD08B5D0F8C830E2
:100F80001B69984708BDD0F8C82008B593699847F1
:100F900008BD38B503680021DD79838F04469D4282
:100FA000826B11D22B46FFF7DCFF0222236884F804
:100FB0002C2093F807C0A16BA28F01EB0C00A0635B
:100FC000D979501AA08738BDFFF7CBFF0023032043
:100FD00084F82C00A387A36338BD38B50268838FDB
:100FE000B0F836C0D179C3EB0C058D42A8BF0D46D1
:100FF000826BADB20021D2182B460446FFF7B7FF33
:10100000A84207D0204600210122FFF7B6FF4FF08B
:10101000FF3038BDA38F00EB030EA4F83CE038BDD1
:10102000F7B504460E46002505F1080204EBC2029E
:101030005768B7B1507A317892F808C000EA0103D6
:101040009C450BD104F1400200922046314604F148
:10105000380204F13C03B84701280DD90135042DAD
:10106000E2D12046314604F1380204F13C0303B0DA
:10107000BDE8F04000F0B6BA03B0F0BD10B50369AA
:10108000044683638A7991F807C042EA0C23838778
:10109000FFF7C6FF014670B1A18F204619B1BDE828
:1010A0001040FFF776BF0A460B46FFF75AFF0420B1
:1010B00084F82C0010BD20460122BDE81040FFF747
:1010C0005CBF70B5054600246E6C36B1013408353E
:1010D000042CF9D14FF0FF3070BD083400EBC4048C
:1010E000217262726360304670BD70B5002500F1F8
:1010F000300608230564294632460446FFF737FFC9
:1011000008280ED1E38E1BB194F93020002A05DAAD
:1011100020463146BDE87040FFF7B0BFA08A984234
:1011200006D2204629460122BDE87040FFF725BFC0
:1011300020692268A063A587D179994201D205234D
:1011400000E0062384F82C3070BD90F82C3010B5E8
:10115000062B044610D0072B25D0052B34D1FFF7E2
:101160003CFF002836DB2068E18EA28FC3798A1A03
:101170009A422FDC062311E0FFF72FFF002829DB1E
:1011800004F130012046FFF74BFF014648B1002132
:101190000B4620460A46FFF7E4FE042384F82C3071
:1011A00010BD204611E000210B460A46FFF7DFFE86
:1011B000002384F82C30236C1BB1204604F130014D
:1011C00098470020206410BD00210122BDE8104096
:1011D000FFF7D3BE10BD90F82C3010B5032B04469A
:1011E00007D0042B09D0022B1ED1BDE81040FFF719
:1011F000D0BE072380F82C3010BD036C13B100F172
:101200003001984794F8300050B994F8311005290E
:1012100006D1D4F8C830618E5A682046C9B29047CA
:10122000002084F82C0010BD00210122BDE81040F0
:10123000FFF7A3BE10B50A7872B94C887F2C0DD881
:10124000D0F8C830847593F830204AB149885B687B
:10125000C9B29847012010BD002010BD104610BD36
:10126000012010BD38B54B88C27D04469A420D4618
:101270000FD0D0F8C810C375CB689847D4F8C430E5
:101280003BB100206064E0646065E06569882046E9
:101290009847012038BD1988012901D901211980F9
:1012A0001368C27D01201A7070474A8812B91A80EB
:1012B0000120704700207047012018801368002229
:1012C0001A7070471988022901D902201880116804
:1012D00000230B701268012053707047198802298F
:1012E00001D902201880116800230B7012680120B8
:1012F0005370704738B514461A88022A01D902255E
:101300001D808A882568D1B2FFF73DFE011C18BFF9
:1013100001212970236800205870012038BD08B5CC
:1013200089880122C9B2FFF728FE012008BD08B54F
:1013300089880022C9B2FFF720FE012008BD2DE9EF
:10134000F04F044648881D46C3B2000A022887B001
:1013500016460FD0032800F0C780012840F0008116
:101360002368136021682A880B789A4238BF134695
:101370002B80F6E020690D275F431060D4F80480CD
:101380002E8818F8074008EB0703A64238BF3446FA
:10139000224619460190029300F09CF9361B002268
:1013A0000190B6B2001918F80770039205958FE006
:1013B000039D0C236B43029A0493D2F809A004996D
:1013C0000AEB01056D689DB195F8008029464645F8
:1013D00038BFB046424600F07DF92978C8EB0606D2
:1013E000444407EB010C4044B6B2A4B21FFA8CF798
:1013F0004FF0000A5EE0152505FB0AFBD3F80890C4
:1014000019F80B8009EB0B05464538BFB04642463C
:10141000294600F05FF9C8EB0601D5F811208EB21D
:101420009642B8BF324608EB040394B222464044C9
:10143000D5F80D101FFA83F819F80B9000F04AF94F
:10144000D5F8112008EB04039144311B09EB070880
:1014500000191FFA88F79CB28EB24FF0000853466D
:1014600021E0D5F809A04FEAC801C8EB010B1AF832
:101470000B900AEB0B014E4538BFB1464A4600932C
:1014800000F028F91AF80B30C9EB0606FF1809EB33
:10149000040C08F10102009B4844B6B21FFA8CF418
:1014A000BFB21FFA82F895F804E0C645D9D85D1C92
:1014B0001FFA85FA029B0499D3F809C05CF8012051
:1014C0000CEB0103924596DB03994A1C95B20395F8
:1014D000029B039D93F804E0AE453FF669AF059D7E
:1014E000019847802C8039E0276953B904210923EA
:1014F000BB70F97039702A88042A28BF04222A8018
:1015000029E0A06800282CD0E268013B934227DA4A
:10151000898840F2094C614522D150F823004FEAF6
:10152000830800F0E3F8411C4A00D0B238702B88E1
:10153000984228BF18462880002307E0A06807EBE0
:10154000430250F80810C85C0133508028884108D5
:101550004A1E9342F2DB03237B703760012000E0D8
:10156000002007B0BDE8F08F38B54C78092C05D8BD
:10157000044D55F824401CB1A04738BD002038BDAB
:10158000204638BD2418000838B54C780B2C05D8F7
:10159000044D55F824401CB1A04738BD002038BD8B
:1015A000204638BDF417000810B54C78012C03D044
:1015B0000BD3032C07D102E04C8844B101E04C88E6
:1015C0003CB1002010BD002010BD034C02E0034CD4
:1015D00000E0034CA04710BDF51200082F130008CF
:1015E0001F13000810B50C7814F0600F13D104F02D
:1015F0001F04012C07D0022C09D0002C0BD1BDE810
:101600001040FFF7B1BFBDE81040FFF7BDBFBDE818
:101610001040FFF7C9BF002010BD01617047C268CC
:1016200082EA0103C3607047806880B2704710B5DA
:101630000C46FFF7F9FF204010BD00000A4B83F372
:1016400008880A4B0A4A03E052F8041B43F8041BBB
:1016500008488342F8D302E0002243F8042B0649ED
:101660008B42F9D3FEF74EBE005000200000002050
:101670004C1800081C00002028090020FEE77047D5
:10168000024B20F07F401860704700BF14E000E07C
:10169000012804D8024B1A6842EA8000186070479B
:1016A00010E000E0024B186840F002021A60704738
:1016B00010E000E0024B186840F001021A60704729
:1016C00010E000E0014A024B1A6070470400FA057E
:1016D0000CED00E010B58218034603E011F8014C50
:1016E00003F8014B01319342F8D310BD034613F8C0
:1016F000012B002AFBD1181A013870471201000291
:1017000000000040501D17600001010203010000AD
:1017100009020000010100C032201700080000008B
:1017200001000000000000002C1700080904000060
:1017300000FE010204000000004417000809000038
:1017400000000000092109FF0000041A0100000048
:10175000426C61636B2053706865726520546563E9
:10176000686E6F6C6F67696573000000426C61633F
:101770006B204D616769632050726F626520285548
:10178000706772616465290040496E7465726E61AC
:101790006C20466C6173682020202F307830383000
:1017A00030303030302F382A3030314B612C3132EC
:1017B000302A3030314B6700000200040000000680
:1017C000310D00084D090008650D00085D0900088D
:1017D00095090008A10A0008610A0008FD0A00082E
:1017E000910B0008790C00080000000000000000C8
:1017F00000000000DD1200080000000000000000F2
:1018000000000000000000000000000000000000D8
:10181000000000000000000000000000B9120008F5
:10182000AB120008C5120008000000000000000014
:101830000000000000000000351200083F130008FF
:0C1840000000000097120008651200086C
:10184C0002000000501700086C1700082804002044
:0C185C008817000800127A0000127A00C1
:040000050800163D9C
:00000001FF
